:100000000C944A000C9420080C9420080C942008AE
:100010000C9420080C9420080C9420080C942008C0
:100020000C9420080C9420080C9420080C942008B0
:100030000C9420080C9420080C9420080C942008A0
:100040000C9420080C9420080C9420080C94200890
:100050000C942008A506D006D006D006D006D006FF
:10006000D006D006D006D006D006D006D006D006E0
:10007000D006D006A906AD06B106B506B906BD067E
:10008000C106C506C906CD06006000628000620098
:100090009700104E11241FBECFE5D8E0DEBFCDBFC4
:1000A000E8E8F0E040E017C0B591A59135912591C1
:1000B000059107FD0CC095918591EF01F92FE82F6F
:1000C00005900D92A217B307D9F7FE0104C01D9247
:1000D000A217B307E1F7E439F40731F70E949F0450
:0800E0000C94F707F894FFCF20
:1000E800AEE0B0E0EAE7F0E00C948B074C016B015E
:1000F8001A8219828FEF9FEF9C838B831E821D8249
:1001080058874F833A872987A12CB12CD6016D9047
:100118007C90F301EA0DFB1D808181110FC0D6018F
:10012800ED93FC938081853209F0D3C13F01BFEF85
:100138006B1A7B0AF6017182608219C0853279F3E5
:10014800B401082E000C990B0E9459054FEFA41A10
:10015800B40ADCCF8C32ACF08D32F9F489819A8103
:1001680081609A8389833196D601ED93FC93D601F9
:10017800ED91FC9180818B3269F789819A81846045
:10018800F0CF803221F489819A818860EACF833266
:1001980051F489819A818061E4CF803321F4898187
:1001A8009A818260DECFB701C6010E94D1069E8384
:1001B8008D8397FF0BC029813A81B1E02B273A83C1
:1001C80029839195819591099E838D8389819A814F
:1001D80080FF03C08D7F9A838983D601ED91FC91BE
:1001E800119780818E3249F43196ED93FC93B701D3
:1001F800C6010E94D1069C838B83C6010E944B07CF
:10020800582ED601ED91FC918081082E000C990B97
:100218000E940B08893609F443C084F4833609F434
:1002280002C134F4853209F427C18136E1F030C1C6
:100238008436B1F188360CF4D9C02AC1803709F464
:100248009AC03CF48E3609F4BCC08F3609F461C0FC
:100258001FC1853709F440C0883709F476C0833751
:1002680009F016C1F3C0652D70E0A701CE010B9609
:100278000E940000892B09F426C1D601ED91FC915A
:100288001197CF0101968D939C932081AE01455F14
:100298005F4FBE016F5F7F4FC4010E94000010C115
:1002A800652D70E0970141E050E0CE010B960E9469
:1002B800D203892B09F407C1F60180819181019647
:1002C80091838083AE01455F5F4FBE016F5F7F4FB3
:1002D800C4010E946003F4C0652D70E0970140E0FE
:1002E80050E0CE010B960E94D203892B09F4EBC093
:1002F800D6018D919C91119701968D939C93AE0197
:10030800455F5F4FBE016F5F7F4FC4010E94A50527
:10031800D7C0652D70E0970140E050E0CE010B9604
:100328000E94D203892B09F4CEC0F6018081918105
:10033800019691838083AE01455F5F4FBE016F5F79
:100348007F4FC4010E940005BBC0652D70E0970176
:1003580040E050E0CE010B960E94D203892B09F4AD
:10036800B2C0D601ED91FC911197CF0101968D9302
:100378009C9320811CC0970140E050E060EF70E042
:10038800CE010B960E94D203892B09F49CC0F6017A
:10039800808191810196918380838B859C85892BAF
:1003A80029F420E030E049E850E084C028E7AE01B5
:1003B800455F5F4FBE016F5F7F4FC4010E947202AD
:1003C8007FC0A501400F511F652D70E09701CE0138
:1003D8000B960E940000892B09F475C0D6018D91F7
:1003E8009C91119701968D939C9373C0652D70E035
:1003F800A701CE010B960E940000892B09F463C067
:10040800D601ED91FC911197CF0101968D939C93A4
:100418002081AE01455F5F4FBE016F5F7F4FC40112
:100428000E9400004DC0B0E85B124DC0F60180810B
:100438009181019691838083D701ED91FC91119769
:10044800CF0102968D939C93808120C0B0E85B1207
:100458003AC0F60180819181019691838083D7010A
:10046800ED91FC911197CF0102968D939C93408159
:10047800518120E030E01EC0B0E85B1224C0F601D4
:10048800208131812F5F3F4F318320838B870DC0BF
:1004980085E28B87D6016D927C921A8219821E8220
:1004A8001D828FEF9FEF9C838B8321E030E0AE01AC
:1004B800455F5F4FBE016F5F7F4FC4010E94FF061B
:1004C8008A0D9B1D07C0F601808191810196918359
:0C04D8008083C5012E96EFE00C94A7076E
:1004E400AFE0B0E0E8E7F2E00C9488071C016B0190
:1004F4005A8349832B83FB01828193818480958075
:1005040000811181A680B78097FD02C00D7F02C0D3
:1005140081E090E0E981FA814080518062807380BB
:100524009801207133273D832C83740104FF08C094
:10053400411451046104710419F032E0E31AF10822
:10054400F801E870FF27FF83EE8303FF03C0F1E0A7
:10055400EF1AF108F6010084F185E02D3197FF8749
:10056400EE87EA0DFB1D10829C012E193F09398785
:100574002887C801827099279B878A87EB818E2FF1
:10058400EE0F990B9C01215431093D872C872E8550
:100594003F852230310530F48C819D81892B09F00F
:1005A40042C05CC0411451046104710461F18E8540
:1005B4009F8501979F878E87C2018F7099278A3004
:1005C400910514F4C09602C0895A9F4FEC85FD85AD
:1005D4007A9748F49C012062215631092A31310569
:1005E40010F40E940208EE85FF85EA0DFB1D80834E
:1005F400F1E0EF1AF10884E07694679457944794F5
:100604008A95D1F7C4CF888599858E0D9F1D1816BC
:1006140019066CF21E141F040CF0BECFEA85FB858C
:10062400EF2B29F6B9CFE981FA8180819181A281EA
:10063400B381892B8A2B8B2B89F0EE85FF85EA0DFC
:10064400FB1D31972B8120838E859F8502979F8781
:100654008E87FC01EA0DFB1D80E38083EE81FF8120
:10066400EF2B59F02E853F85215031093F872E8786
:10067400F901EA0DFB1D80E28083F6014085518576
:10068400415051092E853F85421B530BB9016A0D18
:100694007B1D9401C1010E9462069C01F1018081CD
:1006A400918190FF06C0F60182819381821793079E
:0C06B4000CF4C9012F96E2E10C94A4079D
:1006C000A2E0B0E0E6E6F3E00C9488073C016B01A1
:1006D000FB0122813381A480B580808191819A833E
:1006E000898386809780FA01208031804280538000
:1006F000B201A10157FE07C044275527BA0142198C
:1007000053096409750937FD03C08D7F9A83898376
:10071000950157FC05C0898182FD02C083FF02C09C
:1007200021503109CE0101967C010AE010E0C6019A
:100730000E943A0457FC03C0298122FF0AC0019796
:10074000F401E80FF91F57FC02C02BE209C02DE2AB
:1007500007C023FF06C00197F401E80FF91F20E24C
:10076000208309811A81F601408551854150510944
:10077000481B590BB401680F791F9501C3010E94F2
:1007800062069C01F3018081918190FF06C0F60111
:1007900082819381821793070CF4C9012296E2E1CA
:0407A0000C94A4070A
:1007A400CF93DF93DC01F90168387105F1F05CF453
:1007B4006138710561F164387105A1F16038710522
:1007C40009F051C02FC0603C710509F441C0603F7D
:1007D4007105F1F1603A710509F045C0C081D1811C
:1007E400CE0102969183808325C0C081D181CE0140
:1007F400029691838083452B39F04881042E000CA6
:10080400550B660B770B1CC0488150E029C0C08192
:10081400D181CE01049691838083488159816A8174
:100824007B810EC0C081D181CE01029691838083E9
:10083400452BA1F048815981052E000C660B770BDE
:100844004D935D936D937C93139781E090E00DC07D
:10085400C081D181CE0102969183808348815981E0
:1008640060E070E0EDCF80E090E0DF91CF910895FB
:10087400A0E0B0E0E0E4F4E00C948A07DC01280195
:100884001696AD90BC901797F701808191811296CE
:10089400ED91FC9113971896CD91DC9119972197BE
:1008A400F7FF02C0E1E0F0E0CA0DDB1D1882690128
:1008B400A1E0B0E08F01021B130B4C01F2E08F2288
:1008C4009924052C000C66087708CE018A199B0927
:1008D400CA15DB0519F1411551056105710589F04A
:1008E400CB01BA01A30192010E942907CA01A62FD4
:1008F400B72F605D6A9341E0C41AD108A901BC0115
:10090400E4CF98012C0D3D1D121613064CF31C1454
:100914001D0434F48114910419F702C080E090E0BE
:10092400AB2B31F4F701208131812F7E3183208379
:0A093400CDB7DEB7E0E10C94A60792
:10093E00CF93DF93CDB7DEB72F970FB6F894DEBF08
:10094E000FBECDBF8FEF87BB8FEB8ABB86E087B91B
:10095E0088E886B90F2EF8EC5F2EF02D0F2EFFE8EB
:10096E008F2EF0E09F2EF02DCE0101963C010F2E22
:10097E00F7E9CF2EF0E0DF2EF02DE3ECF9E0319722
:10098E00F1F700C0000056B8349BFECF349884B106
:10099E0095B19F938F939F928F927F926F920E94A9
:1009AE00D7070F900F900F900F900F900F900F2E64
:1009BE00F4E6AF2EB12CF02D16C0F80181918F0107
:1009CE008BBBF70181917F010E949B0683EC99E01E
:1009DE000197F1F700C000000C151D0571F791E0AD
:1009EE00A91AB10851F203E910E0FE0131967F0118
:0209FE00E4CF44
:100A0000A2E0B0E0E6E0F5E00C948C074C016B014D
:100A1000FB012281338164807580808191819A837A
:100A20008983A680B78037FD03C08D7F9A83898331
:100A3000FA014081518162817381CE0101967C016E
:100A400008E010E09301C6010E943A04298124FFC6
:100A500006C00197F501E80FF91F20E320832981E3
:100A600023FF06C00197F501E80FF91F20E220835C
:100A700009811A81F6014085518541505109481B71
:100A8000590BB501680F791F9301C4010E946206DA
:100A90009C01F4018081918190FF06C0F601828162
:100AA0009381821793070CF4C9012296EEE00C940F
:020AB000A80795
:100AB2000F931F93CF93DF93DB01109719F48FEFFE
:100AC2009FEF3DC02D913C91119730FF25C01696A6
:100AD2004D915C91179714962D913C911597421761
:100AE200530778F41296ED91FC9113978083129636
:100AF2002D913C9113972F5F3F4F13963C932E936A
:100B0200129716962D913C9117972F5F3F4F17968C
:100B12003C932E93169713C01C96ED91FC911D9752
:100B2200309769F2EB01092F182F0995892B39F6B5
:100B32008E819F8101969F838E83812F902FDF91DB
:080B4200CF911F910F9108955E
:100B4A00A2E0B0E0EBEAF5E00C948C075C016B01E3
:100B5A00FB012281338184809580808191819A83EF
:100B6A0089836680778037FD03C08D7F9A83898366
:100B7A00FA014081518162817381CE0101967C0123
:100B8A000AE010E09401C6010E943A0409811A8120
:100B9A00F6014085518541505109481B590BB30153
:100BAA00680F791F9401C5010E9462069C01F50134
:100BBA008081918190FF06C0F6018281938182171C
:0E0BCA0093070CF4C9012296EEE00C94A807E4
:100BD800A2E8B0E0E2EFF5E00C948E075C014A0170
:100BE800CF57DF4F79836883C158D040C12CD12CAF
:100BF800CF57DF4FE881F981C158D04080818823E1
:100C0800E9F07401860120E830E0AE014F5F5F4FE4
:100C1800BE016F577F4FC5010E9474008C0D9D1D4A
:100C28008C159D054CF48FE490E0909361008093BF
:100C380060008FEF9FEF03C06C01DACFC601CE577B
:080C4800DF4FECE00C94AA0759
:100C5000A0E1B0E0EEE2F6E00C949407FB01BA01EB
:100C6000AE014F5F5F4F7A0140E1D7011D924A9577
:100C7000E9F742E051E05A8349839C838B83F7FF75
:100C800009C08FE490E090936100809360008FEF43
:100C90009FEF14C0A9018C013197FE83ED83C7013A
:100CA0000E94BF074F8158852D813E81421753070F
:100CB00008F49A01F801E20FF31F10826096E6E053
:040CC0000C94B007D9
:100CC400A0E0B0E0E8E6F6E00C948E076C015B016E
:100CD4007A01E901480181E08822992400FD03C0DA
:100CE4004217530750F0A701B501C6010E946B07D4
:100CF400EC16FD0610F0C70117C08E010E191F096E
:100D04000115110541F0B60180E290E00E945905F9
:100D140001501109F5CF8114910429F4A701B501FB
:100D2400C6010E946B07CE01CDB7DEB7ECE00C9490
:020D3400AA070C
:100D360090E0FC01B097EA31F10578F5E65DFF4FEA
:100D46000C941A088091780088BB089580917800E9
:100D560088BB08958091790088BB089580917A00B8
:100D660088BB089580917B0088BB089580917C00A4
:100D760088BB089580917D0088BB089580917E0090
:100D860088BB089580917F0088BB0895809180007C
:0C0D960088BB08958091810088BB0895FF
:100DA200DC01ED91FC91119780818A3221F080E083
:100DB20090E03AE00EC03196ED93FC93DB01ED91A9
:100DC200FC911197CF0102968D939C938081918122
:100DD2000895ED91FC911197208120532A3068F4F7
:100DE200389FA001399F500D1124CA01820F911D15
:0C0DF20031961196FC93EE93ECCF08951F
:100DFE00A0E0B0E0E5E0F7E00C9490077C01FB0189
:100E0E00EA01C901A280B380C480D580008111811E
:100E1E00209711F4C2E8D0E0009719F4CE010E9499
:100E2E00E907B7FC04C0A816B90608F4C501960177
:100E3E00AC01BE01C7010E946206CDB7DEB7EAE083
:040E4E000C94AC074D
:100E5200A1E21A2EAA1BBB1BFD010DC0AA1FBB1FBC
:100E6200EE1FFF1FA217B307E407F50720F0A21B2E
:100E7200B30BE40BF50B661F771F881F991F1A949B
:100E820069F760957095809590959B01AC01BD01C5
:040E9200CF010895EF
:100E9600CF93DF93EC0190E0E92FF0E0EE0FFF1F18
:100EA600EE59FF4F8081811102C081810EC0A88159
:100EB600B9812C91821305C091811196B983A883BB
:100EC60001C09F5F9B3040F3892FDF91CF9108953A
:100ED600A0E0B0E0E1E7F7E00C9492076C01EB01CB
:100EE6008A017B01E40EF51ECE15DF0541F08991DE
:100EF600B601082E000C990B0E945905F5CFC801C2
:0A0F0600CDB7DEB7E8E00C94AE07AB
:100F10002F923F924F925F926F927F928F929F9209
:100F2000AF92BF92CF92DF92EF92FF920F931F93F7
:100F3000CF93DF93CDB7DEB7CA1BDB0B0FB6F894A8
:080F4000DEBF0FBECDBF099416
:100F48002A88398848885F846E847D848C849B8451
:100F5800AA84B984C884DF80EE80FD800C811B815F
:100F6800AA81B981CE0FD11D0FB6F894DEBF0FBE8E
:060F7800CDBFED0108955C
:100F7E00A2E0B0E0E5ECF7E00C9496078C015A8302
:100F8E004983AE014F5F5F4F0E94EC05F80120814F
:100F9E0024FF02C08FEF9FEF2296E4E00C94B2077D
:100FAE00A0E0B0E0EDEDF7E00C949807AE01475FDE
:100FBE005F4F6F8178858D819E810E941308E2E0DC
:040FCE000C94B407C4
:100FD200FC01AF014F5F5F4F2081222311F0FA0124
:0C0FE200F8CF9F01281B390BC9010895AE
:100FEE00EC010E9425080E942408CE010E942608CA
:060FFE00CE010E94220852
:101004009C01215631092A31310510F48F75992735
:0210140008953D
:101016009C01215431092A31310508F48062089572
:0E1026009A01AB016FEF7FE70E942806089544
:0C103400EE0FFF1F0590F491E02D0994D1
:041040000C9400000C
:041044000E94720094
:02104800089509
:02104A00089507
:02104C00089505
:10104E0068076C094C836A9074A07AC00080688827
:06105E0000846C82008199
:0A1064007E0CB69ECCDAFA0EFECE2A
:07106E00286E756C6C29006F
:06107500286E696C2900E1
:04107B0025346400B4
:04107F00F8F4F2F19E
:00000001FF
