:100000000C942A000C9456000C9456000C94560044
:100010000C9456000C9456000C9456000C94560008
:100020000C9456000C9456000C9456000C945600F8
:100030000C9456000C9456000C9456000C945600E8
:100040000C9456000C9456000C9456000C945600D8
:100050000C94560011241FBECFE5D8E0DEBFCDBF03
:0C0060000E9436000C944200F894FFCF80
:10006C008FEF84BB85E083BFCFEFC5BB0E944D00F3
:08007C0015BA0E944D00F9CFF6
:10008400EC010E945B000E945A00CE010E945C00B9
:06009400CE010E9458009D
:10009A0081EB82BF08B600FEFDCF88B7816088BFBA
:0200AA000895B7
:0400AC000C940000B0
:0400B0000E94340076
:0200B4000895AD
:0200B6000895AB
:0200B8000895A9
:00000001FF
