:0400000087EF3AF05C
:10750C00120000EE60F0200EEE6AE806FDE15A6A09
:10751C00596A586A576A566A000EF86E00019BEF5A
:10752C003EF001B09CEF3AF09FEF3AF0818CA0EF67
:10753C003AF0819C03B0A5EF3AF0A8EF3AF08288BC
:10754C00A9EF3AF08298120001500302F3CF05F034
:10755C00F4CF06F001500402F35006260250030249
:10756C00F350062605C001F006C002F0120008BE5A
:10757C00C2EF3AF0C4EF3AF0CAEF3AF007C007F0A6
:10758C0008C008F0D6EF3AF007C009F008C00AF0BE
:10759C00091E0A1E094A0A2A09C007F00AC008F087
:1075AC0012000A6E82900AC083FF8282640E016E02
:1075BC00000E026E000E036E000E046E68EC3BF0C3
:1075CC008292880E016E130E026E000E036E000E78
:1075DC00046E68EC3BF012000A6E82800AC083FFD6
:1075EC008282640E016E000E026E000E036E000E9F
:1075FC00046E68EC3BF08292D00E016E070E026EA8
:10760C00000E036E000E046E68EC3BF01200340E9C
:10761C00366E31C037F0000E3B6E000E3A6E000E27
:10762C00426E000E416E370E2B6E32C02CF033C002
:10763C002DF0360E2E6E47EC3BF031503A24D96EBD
:10764C00DA6ADF6A1200000E0D6E000E0C6E38EF57
:10765C003BF00BC001F0026A0AC003F000EC3CF0F6
:10766C000C4A0D2A09500C24D96EDA6ADF500B6EC5
:10767C000B50D8A444EF3BF046EF3BF02FEF3BF020
:10768C0012002CC02FF02DC030F055EF3BF02BC06A
:10769C0020F02F0E216E2EC022F066EC3DF02FC094
:1076AC00F6FF30C0F7FF0800F5500009D8A461EFD1
:1076BC003BF063EF3BF04DEF3BF0000E2C6E000EF9
:1076CC002B6E1200000E066E000E076E000E086E7A
:1076DC00000E096E78EF3BF0010E0626000E072215
:1076EC00082209220150065C025007580350085822
:1076FC000950800A056E0450800A0558D8A089EFFD
:10770C003BF08BEF3BF072EF3BF01200A2EF3BF043
:10771C000BC0F6FF0CC0F7FFF86A050EF76403D038
:10772C000800F55005D0F6CFE1FFF7CFE2FFE750A8
:10773C00F2EC3AF00B4A0C2A0BC0F6FF0CC0F7FF28
:10774C00F86A050EF76403D00800F55005D0F6CFA3
:10775C00E1FFF7CFE2FFE7500009D8A4B8EF3BF008
:10776C00BAEF3BF08EEF3BF012005AA0C0EF3BF0AB
:10777C00C2EF3BF0C8EF3BF00FC009F00EC00AF0AF
:10778C0029EC3BF011BECFEF3BF0CDEF3BF0D3EF4C
:10779C003BF0000E116E000E106E000E146E000EFB
:1077AC00136EE3EF3BF0000E026E200E016E0EC066
:1077BC0003F000EC3CF0134A142A1050135C1450E4
:1077CC00800A126E1150800A1258D8A0F0EF3BF0CC
:1077DC00F2EF3BF0D9EF3BF05AB0F7EF3BF0F9EF9B
:1077EC003BF0FFEF3BF00FC009F00EC00AF029ECA4
:1077FC003BF012000350D8B406EF3CF008EF3CF01D
:10780C0010EF3CF00350D8A40EEF3CF010EF3CF01E
:10781C0015EF3CF0015086EC3AF054EF3CF003507D
:10782C00D96EDA6A0A0ED926DE50DE10D8B421EFF2
:10783C003CF023EF3CF03CEF3CF00350D96EDA6A9D
:10784C000A0ED9260350E16EE26A030EE126DE50E1
:10785C00E65CE650800A086EDE50800A0858D8B004
:10786C003AEF3CF03CEF3CF054EF3CF00350D96E57
:10787C00DA6A030ED926DF50046E0350D96EDA6A29
:10788C00DF500424D96EDA6A01C0DFFF0350D96ED1
:10789C00DA6A030ED926DE2A000EDD221200000E53
:1078AC000B6E000E0A6E0750D96EDA6ADECFF6FF49
:1078BC00DDCFF7FF0800F5502A0AD8A468EF3CF09A
:1078CC006AEF3CF094EF3CF00750D96EDA6ADE2A8E
:1078DC00000EDD220850D96EDA6A020EDF26DF5C5C
:1078EC00D96EDA6ADECF0AF0DECF0BF0A7EF3CF0F0
:1078FC000AC001F00BC002F0000E046E0A0E036EFB
:10790C00AAEC3AF0095001240A6E000E02200B6E0C
:10791C000750D96EDA6ADE2A000EDD220750D96EC6
:10792C00DA6ADECFF6FFDDCFF7FF0800F550D00F97
:10793C00096E090E0964A5EF3CF0A7EF3CF07EEF51
:10794C003CF00AC007F00BC008F01200000E066EE7
:10795C0002BEB5EF3CF0B3EF3CF0BBEF3CF0016C7A
:10796C00021ED8B0022A010E066E04BEC2EF3CF015
:10797C00C0EF3CF0C6EF3CF0036C041ED8B0042AF8
:10798C0003500410D8B4CDEF3CF0CFEF3CF0F3EF44
:10799C003CF0010E056ED7EF3CF0D8900336043660
:1079AC00052A04AEDCEF3CF0DEEF3CF0D3EF3CF00C
:1079BC000350015C04500258D8A0E7EF3CF0E9EF0B
:1079CC003CF0EDEF3CF00350015E0450025AD890AD
:1079DC0004320332052EDEEF3CF00650D8B4F9EF3A
:1079EC003CF0FBEF3CF0FFEF3CF0016C021ED8B01A
:1079FC00022A01C001F002C002F01200000E066E55
:107A0C0004BE0DEF3DF00BEF3DF013EF3DF0036CBA
:107A1C00041ED8B0042A010E066E02BE1AEF3DF009
:107A2C0018EF3DF020EF3DF0016C021ED8B0022A99
:107A3C00010E061A000E086E000E076E035004109D
:107A4C00D8B42BEF3DF02DEF3DF055EF3DF0010E8E
:107A5C00056E35EF3DF0D89003360436052A04AE9A
:107A6C003AEF3DF03CEF3DF031EF3DF0D89007366A
:107A7C0008360350015C04500258D8A048EF3DF082
:107A8C004AEF3DF04FEF3DF00350015E0450025AB7
:107A9C000780D89004320332052E3CEF3DF006509F
:107AAC00D8B45BEF3DF05DEF3DF061EF3DF0076C5E
:107ABC00081ED8B0082A07C001F008C002F0120056
:107ACC002150D96EDA6ADECFF6FFDDCFF7FF080062
:107ADC00F550250AD8A475EF3DF077EF3DF0E9EFAE
:107AEC003DF02150D96EDA6ADE2A000EDD22000E3E
:107AFC00576E000E566E56C05AF05868596821C021
:107B0C0007F022C008F055EC3CF007C056F008C056
:107B1C0057F057BE96EF3DF094EF3DF09BEF3DF0E4
:107B2C005A80566C571ED8B0572A2150D96EDA6A33
:107B3C00DECF29F0DDCF2AF029C0F6FF2AC0F7FFEF
:107B4C000800F550640AD8B4AEEF3DF0B0EF3DF04C
:107B5C00BEEF3DF029C0F6FF2AC0F7FF0800F55034
:107B6C00690AD8A4BCEF3DF0BEEF3DF0E1EF3DF06B
:107B7C002250D96EDA6A020EDF26DF5CD96EDA6A21
:107B8C00DECF25F0DECF26F0010E2924236E000E69
:107B9C002A20246E2150D96EDA6A23C0DEFF24C05D
:107BAC00DDFF20C015F025C016F026C017F0FBEC49
:107BBC003DF0FAEF3DF02150D96EDA6ADE2A000E64
:107BCC00DD22FAEF3DF02150D96EDA6ADECFF6FFF6
:107BDC00DDCFF7FF0800F550016E026A20C003F0FC
:107BEC0000EC3CF0E1EF3DF01200010E1C6E17BEF4
:107BFC0002EF3EF005EF3EF0010E06EF3EF0000EF8
:107C0C001D6E56C01AF057C01BF01D50D8B411EFA2
:107C1C003EF013EF3EF02AEF3EF01A06D8A01B06FA
:107C2C001D50D8A41CEF3EF01EEF3EF024EF3EF0AA
:107C3C00000E196E2B0E186E28EF3EF0000E196E0A
:107C4C002D0E186E18C01DF0000E1F6E1F0E1E6E2E
:107C5C00000E00017F6F60EF3EF01E06D8A01F06DD
:107C6C001E50600FD96EDA6A16C001F017C002F010
:107C7C00000E046E0A0E036EACEC3CF001C007F073
:107C8C0002C008F0BDEC3AF00750300FDF6E000E6A
:107C9C001C6E1A06D8A01B0616C001F017C002F005
:107CAC00000E046E0A0E036E04EC3DF001C016F0DB
:107CBC0002C017F01FBE6BEF3EF01F5008E11E0410
:107CCC00D8A06BEF3EF06DEF3EF07EEF3EF016501D
:107CDC001710D8A474EF3EF076EF3EF033EF3EF081
:107CEC001C50D8A47CEF3EF07EEF3EF033EF3EF01C
:107CFC001D50D8B484EF3EF086EF3EF08FEF3EF08F
:107D0C001E06D8A01F061E50600FD96EDA6A1DC061
:107D1C00DFFF15C00EF01E50600F0F6E1AC010F072
:107D2C001BC011F0BBEC3BF01200600E946E000E09
:107D3C00956E9268000E936E010ED7EC3AF00F0E12
:107D4C00D7EC3AF0380ED7EC3AF0060ECA6E010EAC
:107D5C00C26E000EC16E860EC06E546855680C0E55
:107D6C00BD6EC2829EACBDEF3EF0BFEF3EF0B8EFF1
:107D7C003EF09E9CC3CF52F0C4CF53F0430E316EF5
:107D8C00F10E326E7E0E336E52C034F053C035F0AD
:107D9C000DEC3BF0800ED7EC3AF0430E0B6E0C6AF8
:107DAC008CEC3BF052C0BEFF82AADFEF3EF0E1EF5D
:107DBC003EF0B7EF3EF0020E54185510D8A4E9EF80
:107DCC003EF0EBEF3EF0EDEF3EF054685568544A50
:107DDC00552A100E016E270E026E000E036E000E59
:107DEC00046E68EC3BF082BAFEEF3EF000EF3FF021
:107DFC00F9EF3EF054505510D8A407EF3FF009EFBF
:107E0C003FF01EEF3FF0000E026E000E016E000EF2
:107E1C00046E010E036E97EC3AF0C00ED7EC3AF0FC
:107E2C00BF0E0B6E7E0E0C6E8CEC3BF0B7EF3EF083
:107E3C0054045510D8A425EF3FF027EF3FF03CEF4A
:107E4C003FF0000E026E010E016E000E046E000E6D
:107E5C00036E97EC3AF0C00ED7EC3AF0E10E0B6ED5
:107E6C007E0E0C6E8CEC3BF0B7EF3EF0020E54180D
:107E7C005510D8A444EF3FF046EF3FF05BEF3FF0D6
:107E8C00000E026E000E016E000E046E000E036EEC
:107E9C0097EC3AF0C00ED7EC3AF0D10E0B6E7E0E8A
:107EAC000C6E8CEC3BF0B7EF3EF0B7EF3EF000EF12
:107EBC0000F000636C6F636B776973653E3E202046
:107ECC00202020200073746F70212120202020207E
:107EDC002020202000616E7469636C6F636B77697E
:107EEC0073653C3C004144432076616C75652025EC
:047EFC0034640000EA
:00000001FF
