:100000000C942E000C94A3000C94A3000C94A30059
:100010000C94A3000C94A3000C94A3000C94A300D4
:100020000C94A3000C94A3000C94A3000C94A300C4
:100030000C94A3000C94A3000C94A3000C94A300B4
:100040000C94A3000C94A3000C94A3000C94A300A4
:100050000C94A300006000650001540011241FBE31
:10006000CFE5D8E0DEBFCDBFE4E5F0E040E017C06B
:10007000B591A59135912591059107FD0CC09591FC
:100080008591EF01F92FE82F05900D92A217B30784
:10009000D9F7FE0104C01D92A217B307E1F7EB35B3
:1000A000F40731F70E948A000C949800F894FFCF6F
:1000B00095E092BB85BB89EF90E00197F1F700C016
:1000C000000081E082BB8DEE92E00197F1F700C065
:0400D000000008958F
:1000D40094E092BB85BB89EF90E00197F1F700C0F3
:1000E400000012BA8DEE92E00197F1F700C0000013
:0200F40008956D
:1000F600CF93DF93EC018881882331F021960E940B
:0E010600580089918111FBCFDF91CF910895B0
:100114008FEF81BB84BB81E00E946A008FE00E9464
:0C0124006A0080E690E00E947B00FFCFA4
:10013000EC010E94A8000E94A700CE010E94A90025
:06014000CE010E94A500A3
:040146000C94000015
:04014A000E945600B9
:02014E00089512
:02015000089510
:0201520008950E
:0501540041544C59006C
:00000001FF
