:100000000C942A000C9451000C9451000C94510053
:100010000C9451000C9451000C9451000C9451001C
:100020000C9451000C9451000C9451000C9451000C
:100030000C9451000C9451000C9451000C945100FC
:100040000C9451000C9451000C9451000C945100EC
:100050000C94510011241FBECFE5D8E0DEBFCDBF08
:0C0060000E9436000C944600F894FFCF7C
:10006C008FEF87BB8DE683BF8FE08CBFE7EAF1E6AD
:10007C003197F1F700C000008F5F8F3FB1F7F4CFDD
:10008C00EC010E9456000E945500CE010E945700C0
:06009C00CE010E9453009A
:0400A2000C940000BA
:0400A6000E94340080
:0200AA000895B7
:0200AC000895B5
:0200AE000895B3
:00000001FF
