:100000000C942A000C94B7000C94B7000C94B70021
:100010000C94B7000C94B7000C94B7000C94B70084
:100020000C94B7000C94B7000C94B7000C94B70074
:100030000C94B7000C94B7000C94B7000C94B70064
:100040000C94B7000C94B7000C94B7000C94B70054
:100050000C94B70011241FBECFE5D8E0DEBFCDBFA2
:0C0060000E9464000C94AC00F894FFCFE8
:10006C009FEE2FED3FEB9BBB89B38F708E30B1F0C1
:10007C00C99B16C0CA9B16C02BBBC89B15C0C99B7D
:10008C0015C0CA9B15C03BBB89B38F708E3091F0E5
:10009C00C99B12C0CA99E7CF83E3089587E30895FB
:1000AC0084E3089581E3089588E3089585E3089532
:0C00BC0082E3089589E3089586E3089527
:1000C8008FEF81BB87BB80EF8ABB8FE08BBB88E358
:1000D8000E949B0081E00E949B008FE00E949B0091
:1000E80080E80E949B000E9436000E94890089B324
:1000F8008F708F30E1F72FEF84E39CE02150804030
:0A0108009040E1F700C00000EECFC8
:1001120090E592BB88BB8FE493EC0197F1F700C0A6
:10012200000080E182BB8FE493EC0197F1F700C0FD
:04013200000008952C
:1001360090E492BB88BB8FE493EC0197F1F700C083
:10014600000012BA8FE493EC0197F1F700C00000AB
:0201560008950A
:10015800EC010E94BC000E94BB00CE010E94BD00C1
:06016800CE010E94B90067
:04016E000C940000ED
:040172000E943400B3
:020176000895EA
:020178000895E8
:02017A000895E6
:00000001FF
