:100000000C942A000C9488000C9488000C948800AE
:100010000C9488000C9488000C9488000C94880040
:100020000C9488000C9488000C9488000C94880030
:100030000C9488000C9488000C9488000C94880020
:100040000C9488000C9488000C9488000C94880010
:100050000C94880011241FBECFE5D8E0DEBFCDBFD1
:0C0060000E9436000C947D00F894FFCF45
:10006C008FEF84BB11BA80E090E060E870E0F0E0C4
:10007C00E0E041E050E084991BC00097C9F480E0B7
:10008C0090E09A01082E02C0220F331F0A94E2F767
:10009C0025BB2FE33DE0A3E021503040A040E1F729
:1000AC0000C0000001968830910559F7CA01E3CFD2
:1000BC008499E1CF81309105F1F680E090E09B01CD
:1000CC00082E02C0359527950A94E2F725BB2FE33D
:1000DC003DE0A3E021503040A040E1F700C000001B
:0E00EC0001968830910559F78F2F9E2FC4CFB3
:1000FA00EC010E948D000E948C00CE010E948E00AD
:06010A00CE010E948A00F4
:040110000C9400004B
:040114000E94340011
:02011800089548
:02011A00089546
:02011C00089544
:00000001FF
