:100000000C942D000C94AC000C94AC000C94AC003F
:100010000C94AC000C94AC000C94AC000C94AC00B0
:100020000C94AC000C94AC000C94AC000C94AC00A0
:100030000C94AC000C94AC000C94AC000C94AC0090
:100040000C94AC000C94AC000C94AC000C94AC0080
:100050000C94AC0000600061800011241FBECFE54D
:10006000D8E0DEBFCDBFE4E5F0E040E017C0B591D9
:10007000A59135912591059107FD0CC0959185912C
:10008000EF01F92FE82F05900D92A217B307D9F7CA
:10009000FE0104C01D92A217B307E1F7E935F4078A
:0E00A00031F70E9457000C948800F894FFCFAF
:1000AE0082E081BB8FEF84BB87BB0E949300D2E0BE
:1000BE00C1E00E949D0080916000813681F40E9413
:1000CE009D0080916000813311F4C5BBF2CF823365
:1000DE0011F4D5BBEECF833361F715BAEACF823672
:1000EE0041F70E949D0080916000813311F4C8BBDE
:1000FE00E0CF823311F4D8BBDCCF8333D1F618BAFC
:02010E00D8CF48
:10011000EC010E94B1000E94B000CE010E94B2002A
:06012000CE010E94AE00BA
:1001260080E48BB988E18AB986E880BD10BC83E398
:0401360089B90895E6
:0E013A000E94A800809360000E94A400089517
:080148005D9BFECF8CB9089508
:080150005F9BFECF8CB1089506
:040158000C94000003
:04015C000E945500A8
:02016000089500
:020162000895FE
:020164000895FC
:00000001FF
